:020000040800F2
:10000000FF4F0020550800089D0800089D080008C3
:100010009D0800089D0800089D08000800000000D9
:100020000000000000000000000000009D08000823
:100030009D080008000000009D0800089D080008B9
:100040009D0800089D0800089D0800089D080008FC
:100050009D0800089D0800089D0800089D080008EC
:100060009D0800089D0800089D0800089D080008DC
:100070009D0800089D0800089D0800089D080008CC
:100080009D0800089D0800089D0800089D080008BC
:100090009D0800089D0800089D0800089D080008AC
:1000A0009D0800089D0800089D0800089D0800089C
:1000B000790500089D0800089D0800089D080008B3
:1000C0009D0800089D0800089D0800089D0800087C
:1000D0009D080008990700089D0800089D08000871
:1000E000ED0200089D0800089D08000800000000BF
:1000F0000000000000000000000000000000000000
:0C01000000000000000000005FF808F1A3
:10010C0010B5054C237833B9044B13B10448AFF345
:10011C0000800123237010BD3C040020000000006F
:10012C00C80B000808B5034B1BB103490348AFF3D8
:10013C00008008BD0000000040040020C80B00082F
:10014C00A3F5803A704700BF174B002B08BF134B29
:10015C009D46FFF7F5FF00218B460F461348144AC6
:10016C00121A00F0CBFB0E4B002B00D098470D4B16
:10017C00002B00D098470020002104000D000D48F2
:10018C00002802D00C4800F0A1FC00F093FB2000EA
:10019C00290000F0C7F800F07DFB00BF000008004C
:1001AC000000000000000000000000003C040020E3
:1001BC009C080020D90A0008E50A0008640C000815
:1001CC00000000203C0400203C0400209C0800207F
:1001DC0080B483B000AF0346FB7197F90730002B56
:1001EC000BDBFB7903F01F02064997F907305B091B
:1001FC00012000FA02F241F8232000BF0C37BD4663
:10020C0080BC704700E100E080B400AF0A4B9B69F2
:10021C00094A43F004039361084B1B68074A43F4F3
:10022C0080131360054B1B68044A23F4800313608E
:10023C0000BFBD4680BC7047001002400008014062
:10024C0080B483B000AF0346FB71FB79002B03D065
:10025C00064B20221A6103E0044B4FF400121A6182
:10026C0000BF0C37BD4680BC704700BF0008014082
:10027C0080B500AF0E4B9B690D4A43F0110393619F
:10028C000C4B5B690B4A43F0200353610A4B1B6810
:10029C00094A43F400531360074B9B68064A43F426
:1002AC00005393602820FFF793FF00BF80BD00BF71
:1002BC0000100240000001400004014080B400AF77
:1002CC00064B1B78002B04D0044B00221A70012320
:1002DC0000E000231846BD4680BC7047580400203F
:1002EC0080B500AF0D4B5B6903F40053002B12D0AB
:1002FC00002000F027F90346002B06D0084B012202
:10030C001A70C821002000F00BF9044B5B69034AFA
:10031C0043F40053536100BF80BD00BF0004014093
:10032C005804002080B500AF00F034F8FFF76CFFE4
:10033C00FFF79EFF00F0D0F800F05CF9124800F0D7
:10034C000DFA012000F0FEF80346002B13D00F4BE2
:10035C001B78002B0CBF01230023DBB21A460B4B7E
:10036C001A700A4B1B781846FFF76AFF4FF47A7124
:10037C00012000F0D5F8FFF7A1FF0346002BE0D0D9
:10038C00034800F0EBF9DCE7E40B0008590400200B
:10039C001C0C000880B400AF044B5B68034A43F0AC
:1003AC008003536000BFBD4680BC70470010024004
:1003BC0080B400AF00BFBD4680BC704780B485B030
:1003CC0000AF0023FB600023BB6000237B602F4B3E
:1003DC005B6803F00C03FB60FB68082B11D0FB6817
:1003EC00082B3AD8FB68002B03D0FB68042B04D0F5
:1003FC0033E0274B274A1A6033E0254B254A1A6015
:10040C002FE0224B5B6803F47013BB601F4B5B68DF
:10041C0003F480337B60BB689B0C0233BB607B684E
:10042C00002B06D1BB681C4A02FB03F3184A13606D
:10043C0017E0164B5B6803F40033002B06D0BB6847
:10044C00154A02FB03F3124A13600AE0BB68114A17
:10045C0002FB03F30E4A136003E00D4B0D4A1A60C6
:10046C0000BF0A4B5B681B0903F00F030B4AD35CFC
:10047C00FB60074B1A68FB6822FA03F3044A13600B
:10048C0000BF1437BD4680BC704700BF001002404F
:10049C000400002000127A0000093D00300C000816
:1004AC0080B483B000AF0346FB7197F90730002B83
:1004BC000BDBFB7903F01F02064997F907305B0948
:1004CC00012000FA02F241F8232000BF0C37BD4690
:1004DC0080BC704700E100E080B500AF0F4BDB69DA
:1004EC000E4A43F00103D3614FF080434FF47A621C
:1004FC00DA624FF08043DB684FF0804243F0010337
:10050C00D3601C20FFF7CCFF4FF080431B684FF0EB
:10051C00804243F00103136000BF80BD0010024015
:10052C0080B483B000AF7860396005497B683A6865
:10053C0041F8232000BF0C37BD4680BC704700BF7C
:10054C005C04002080B483B000AF7860064A7B68FE
:10055C0052F82330002B0CBF01230023DBB21846CA
:10056C000C37BD4680BC70475C04002080B483B05F
:10057C0000AF4FF0804300221A6100237B6011E032
:10058C000D4A7B6852F82330002B08D00A4A7B684E
:10059C0052F823305A1E08497B6841F823207B68A7
:1005AC0001337B607B68022BEAD900BF00BF0C379C
:1005BC00BD4680BC704700BF5C04002080B483B093
:1005CC0000AF0346FB7197F90730002B0BDBFB796F
:1005DC0003F01F02064997F907305B09012000FA66
:1005EC0002F241F8232000BF0C37BD4680BC704797
:1005FC0000E100E080B500AF134B9B69124A43F455
:10060C00804343F004039361104B5B680F4A43F043
:10061C00F00353600E4BDB680D4A43F02003D360AC
:10062C000B4B23229A602520FFF7C8FF084BDB6891
:10063C00074A43F00C03D360054BDB68044A43F4D0
:10064C000053D36000BF80BD001002400008014081
:10065C000038014080B400AF114BB3F802325A1C81
:10066C0091B20F4AA2F802121A460D4B9A5C0D4B2E
:10067C005A600B4BB3F80232B3F5007F03D3084B2F
:10068C000022A3F80222064BB3F80432013B9AB2C3
:10069C00034BA3F8042200BFBD4680BC704700BFCB
:1006AC00700600200038014080B584B000AF78603F
:1006BC000B467B807B88002B48D0264BDB68254A79
:1006CC0023F08003D3600023FB8129E0224BB3F895
:1006DC000432B3F5007F28D0FB897A681A441E4B8C
:1006EC00B3F80032591C88B21B49A1F80002194614
:1006FC001278194B5A54184BB3F80032B3F5007FEB
:10070C0003D3154B0022A3F80022134BB3F8043289
:10071C0001339AB2104BA3F80422FB890133FB81FD
:10072C00FA897B889A42D1D300E000BF00BF094B05
:10073C001B6803F08003002BF9D0FFF78BFF054BF0
:10074C00DB68044A43F08003D36000E000BF10373D
:10075C00BD4680BD003801407006002080B582B0D7
:10076C0000AF7860786800F019F903469BB219461F
:10077C007868FFF799FF02210348FFF795FF00BF48
:10078C000837BD4680BD00BF480C000880B500AFDF
:10079C002A4B1B6803F08003002B0DD0284BB3F8B9
:1007AC000432002B02D0FFF755FF05E0234BDB682A
:1007BC00224A23F08003D360204B1B6803F02003F4
:1007CC00002B39D01D4B59681E4BB3F800325A1C04
:1007DC0090B21C4AA2F800021A46C9B2194B99549D
:1007EC00184BB3F80032B3F5007F03D3154B00223E
:1007FC00A3F80022134BB3F8043240F2FF129342D9
:10080C0012D1104BB3F8023201339AB20D4BA3F84C
:10081C0002220C4BB3F80232B3F5007F0CD3094B18
:10082C000022A3F8022207E0064BB3F8043201338E
:10083C009AB2044BA3F8042200BF80BD00380140DB
:10084C007006002068040020002103E00B4B5B586D
:10085C00435004310A480B4B42189A42F6D30A4AC9
:10086C0002E0002342F8043B084B9A42F9D3FFF70D
:10087C009FFD00F01FF8FFF755FD7047640C000852
:10088C00000000203C0400203C0400209C080020B8
:10089C00FEE7000008B50021044600F0B7F8044B51
:1008AC001868C36B03B19847204600F085F900BF68
:1008BC004C0C000870B50D4E0D4D761BB61006D0C5
:1008CC00002455F8043B01349847A642F9D1094E4F
:1008DC00094D00F075F9761BB61006D0002455F8BA
:1008EC00043B01349847A642F9D170BD580C00085E
:1008FC00580C0008600C0008580C0008F0B486076F
:10090C0046D0541E002A3CD00346CAB201E0013C3A
:10091C0037D303F8012B9D07F9D1032C2AD9CDB27B
:10092C0045EA05250F2C45EA054534D9A4F11002FA
:10093C0022F00F0C03F120071609674403F1100293
:10094C0042E9045542E902551032BA42F8D1721C00
:10095C0014F00C0F03EB021204F00F0613D0331F2C
:10096C0023F003030433134442F8045B9342FBD19A
:10097C0006F003042CB1CAB21C4403F8012B9C42B0
:10098C00FBD1F0BC704734461346002CF3D1F8E78A
:10099C0014460346C1E71A462646E0E720F0030159
:1009AC0010F00300C0F1000051F8043B00F1040CFE
:1009BC004FEACC0C6FF000021CBF22FA0CF213436E
:1009CC004FF0010C4CEA0C2C4CEA0C4CA3EB0C0237
:1009DC0022EA030212EACC1204BF51F8043B0430A1
:1009EC00F4D0C2F1000102EA0102B2FA82F2C2F1C1
:1009FC001F0200EBD2007047024B13B1024800F00B
:100A0C0065B8704700000000E50A00082DE9F04FBA
:100A1C002C4B83B0019018680F4600F07DF82A4BE0
:100A2C00D3F80080D8F848619EB14FF001094FF01F
:100A3C00000A7468651E0CD4013406EB84047FB183
:100A4C00D4F80031BB420BD0013D6B1CA4F1040463
:100A5C00F5D11C4B186803B0BDE8F04F00F064B83A
:100A6C0073682268013BAB420CBF7560C4F800A0F0
:100A7C00002AE9D0D6F8880109FA05F10142D6F826
:100A8C0004B00BD1904772685A4512D1D8F848314E
:100A9C00B342D9D01E46002ECBD1DAE7D6F88C0162
:100AAC0001420BD1D4F880100198904772685A45D6
:100ABC00ECD0D8F84861002EBBD1CAE7D4F880003E
:100ACC009047E0E7380400204C0C00080023014656
:100ADC001A46184600F02AB838B5084B084D5B1B6F
:100AEC009C1007D0043B1D44013C55F80439984731
:100AFC00002CF9D1BDE8384000F068B8640C00084F
:100B0C00600C0008704700BF704700BF704700BF03
:100B1C00704700BF704700BF704700BF012070478F
:100B2C0001207047704700BF704700BF2DE9F047A8
:100B3C00DFF880A00646DAF8000098460F4691468A
:100B4C00FFF7EAFF1A4B1B68D3F8484124B36568DA
:100B5C001F2D26DC5EB96B1C0235DAF800006360D1
:100B6C0044F82570FFF7E0FF0020BDE8F087012373
:100B7C0004EB8501C1F88890D4F88821AB401A4366
:100B8C00022EC4F88821C1F80881E4D1D4F88C2154
:100B9C001343C4F88C31DEE703F5A674C3F848415F
:100BAC00D5E7DAF80000FFF7BFFF4FF0FF30DCE7C6
:100BBC004C0C000838040020FEE700BF00000000C9
:100BCC00F8B500BFF8BC08BC9E467047F8B500BF2E
:080BDC00F8BC08BC9E467047FE
:100BE40048656C6C6F2C207468697320697320539A
:100BF400544D333246313033204E75636C656F206B
:100C04004C6F772D4C6576656C20554152542050BD
:100C1400726F6A6563740000426C75652062757456
:100C2400746F6E2070726573736564000000000059
:100C34000000000001020304060708090000000088
:0C0C4400010203040D0A00001000002053
:080C5000FCF4FF7F010000002D
:080C5800050A00083101000843
:040C60000D0100087A
:100C6400000000000024F400100000200000000038
:100C740000000000FC02002064030020CC030020DC
:100C84000000000000000000000000000000000060
:100C94000000000000000000000000000000000050
:100CA4000000000000000000000000000000000040
:100CB4000000000000000000000000000000000030
:100CC4000000000000000000000000000000000020
:100CD4000000000000000000000000000000000010
:100CE4000000000000000000000000000000000000
:100CF40000000000000000000000000000000000F0
:100D040000000000000000000000000000000000DF
:100D140000000000000000000100000000000000CE
:100D24000E33CDAB34126DE6ECDE05000B00000093
:100D340000000000000000000000000000000000AF
:100D4400000000000000000000000000000000009F
:100D5400000000000000000000000000000000008F
:100D6400000000000000000000000000000000007F
:0C109400000000000000000078080020B0
:040000050800085592
:00000001FF
